{
  "_format": "hh-sol-artifact-1",
  "contractName": "Relayer",
  "sourceName": "src/Relayer.sol",
  "abi": [
    {
      "inputs": [
        {
          "internalType": "address",
          "name": "_weth",
          "type": "address"
        }
      ],
      "stateMutability": "nonpayable",
      "type": "constructor"
    },
    {
      "anonymous": false,
      "inputs": [
        {
          "indexed": true,
          "internalType": "address",
          "name": "previousOwner",
          "type": "address"
        },
        {
          "indexed": true,
          "internalType": "address",
          "name": "newOwner",
          "type": "address"
        }
      ],
      "name": "OwnershipTransferred",
      "type": "event"
    },
    {
      "stateMutability": "payable",
      "type": "fallback"
    },
    {
      "inputs": [
        {
          "internalType": "address",
          "name": "_executioner",
          "type": "address"
        }
      ],
      "name": "addExecutioner",
      "outputs": [],
      "stateMutability": "nonpayable",
      "type": "function"
    },
    {
      "inputs": [
        {
          "internalType": "address",
          "name": "user",
          "type": "address"
        },
        {
          "internalType": "address",
          "name": "token",
          "type": "address"
        },
        {
          "internalType": "uint256",
          "name": "amount",
          "type": "uint256"
        },
        {
          "components": [
            {
              "internalType": "address",
              "name": "owner",
              "type": "address"
            },
            {
              "internalType": "address",
              "name": "spender",
              "type": "address"
            },
            {
              "internalType": "uint256",
              "name": "value",
              "type": "uint256"
            },
            {
              "internalType": "uint256",
              "name": "deadline",
              "type": "uint256"
            },
            {
              "internalType": "uint8",
              "name": "v",
              "type": "uint8"
            },
            {
              "internalType": "bytes32",
              "name": "r",
              "type": "bytes32"
            },
            {
              "internalType": "bytes32",
              "name": "s",
              "type": "bytes32"
            }
          ],
          "internalType": "struct Relayer.PermitParams",
          "name": "permit",
          "type": "tuple"
        }
      ],
      "name": "depositERC20",
      "outputs": [],
      "stateMutability": "nonpayable",
      "type": "function"
    },
    {
      "inputs": [],
      "name": "owner",
      "outputs": [
        {
          "internalType": "address",
          "name": "",
          "type": "address"
        }
      ],
      "stateMutability": "view",
      "type": "function"
    },
    {
      "inputs": [
        {
          "internalType": "contract IERC20",
          "name": "token",
          "type": "address"
        },
        {
          "internalType": "address",
          "name": "spender",
          "type": "address"
        }
      ],
      "name": "relayApprove",
      "outputs": [],
      "stateMutability": "nonpayable",
      "type": "function"
    },
    {
      "inputs": [
        {
          "internalType": "address",
          "name": "user",
          "type": "address"
        },
        {
          "internalType": "address",
          "name": "token",
          "type": "address"
        },
        {
          "internalType": "uint256",
          "name": "swapAmount",
          "type": "uint256"
        },
        {
          "components": [
            {
              "internalType": "address",
              "name": "owner",
              "type": "address"
            },
            {
              "internalType": "address",
              "name": "spender",
              "type": "address"
            },
            {
              "internalType": "uint256",
              "name": "value",
              "type": "uint256"
            },
            {
              "internalType": "uint256",
              "name": "deadline",
              "type": "uint256"
            },
            {
              "internalType": "uint8",
              "name": "v",
              "type": "uint8"
            },
            {
              "internalType": "bytes32",
              "name": "r",
              "type": "bytes32"
            },
            {
              "internalType": "bytes32",
              "name": "s",
              "type": "bytes32"
            }
          ],
          "internalType": "struct Relayer.PermitParams",
          "name": "permit",
          "type": "tuple"
        },
        {
          "internalType": "address",
          "name": "swapSpender",
          "type": "address"
        },
        {
          "internalType": "address",
          "name": "to",
          "type": "address"
        },
        {
          "internalType": "bytes",
          "name": "swapCall",
          "type": "bytes"
        }
      ],
      "name": "relaySwapToETH",
      "outputs": [],
      "stateMutability": "payable",
      "type": "function"
    },
    {
      "inputs": [
        {
          "internalType": "contract IERC20",
          "name": "token",
          "type": "address"
        }
      ],
      "name": "relaySwipe",
      "outputs": [],
      "stateMutability": "nonpayable",
      "type": "function"
    },
    {
      "inputs": [],
      "name": "relaySwipeETH",
      "outputs": [],
      "stateMutability": "nonpayable",
      "type": "function"
    },
    {
      "inputs": [],
      "name": "renounceOwnership",
      "outputs": [],
      "stateMutability": "nonpayable",
      "type": "function"
    },
    {
      "inputs": [
        {
          "internalType": "address",
          "name": "recipient",
          "type": "address"
        },
        {
          "internalType": "address",
          "name": "token",
          "type": "address"
        },
        {
          "internalType": "address",
          "name": "spender",
          "type": "address"
        },
        {
          "internalType": "address",
          "name": "to",
          "type": "address"
        },
        {
          "internalType": "bytes",
          "name": "swapCall",
          "type": "bytes"
        }
      ],
      "name": "swap0x",
      "outputs": [],
      "stateMutability": "payable",
      "type": "function"
    },
    {
      "inputs": [
        {
          "internalType": "address",
          "name": "newOwner",
          "type": "address"
        }
      ],
      "name": "transferOwnership",
      "outputs": [],
      "stateMutability": "nonpayable",
      "type": "function"
    },
    {
      "inputs": [
        {
          "internalType": "address",
          "name": "to",
          "type": "address"
        },
        {
          "internalType": "bytes",
          "name": "swapCall",
          "type": "bytes"
        }
      ],
      "name": "unsafeGeneralCall",
      "outputs": [],
      "stateMutability": "nonpayable",
      "type": "function"
    },
    {
      "stateMutability": "payable",
      "type": "receive"
    }
  ],
  "bytecode": "0x60a060405234801561001057600080fd5b5060405162001d7638038062001d76833981016040819052610031916100b8565b61003a33610068565b6001600160a01b0316608052336000908152600160208190526040909120805460ff191690911790556100e8565b600080546001600160a01b038381166001600160a01b0319831681178455604051919092169283917f8be0079c531659141344cd1fd0a4f28419497f9722a3daafe3b4186f6b6457e09190a35050565b6000602082840312156100ca57600080fd5b81516001600160a01b03811681146100e157600080fd5b9392505050565b608051611c5d6200011960003960008181610707015281816107be0152818161110101526111b80152611c5d6000f3fe6080604052600436106100b45760003560e01c806373e4c8fc1161006e578063afc8542c1161004b578063afc8542c146101b3578063d9246d36146101c6578063f2fde38b146101e657005b806373e4c8fc1461013a5780638da5cb5b1461015a5780639028328c1461019357005b80634c0f31b91161009c5780634c0f31b9146100f0578063597244ec14610105578063715018a61461012557005b80632a3b7699146100bd5780632dc2a3c3146100dd57005b366100bb57005b005b3480156100c957600080fd5b506100bb6100d836600461177a565b610206565b6100bb6100eb366004611814565b6102cb565b3480156100fc57600080fd5b506100bb610ac0565b34801561011157600080fd5b506100bb6101203660046118c1565b610af7565b34801561013157600080fd5b506100bb610d60565b34801561014657600080fd5b506100bb610155366004611914565b610d74565b34801561016657600080fd5b506000546040805173ffffffffffffffffffffffffffffffffffffffff9092168252519081900360200190f35b34801561019f57600080fd5b506100bb6101ae366004611969565b610e4d565b6100bb6101c136600461198d565b610ea7565b3480156101d257600080fd5b506100bb6101e1366004611969565b611324565b3480156101f257600080fd5b506100bb610201366004611969565b61145c565b61020e611510565b6040517f095ea7b300000000000000000000000000000000000000000000000000000000815273ffffffffffffffffffffffffffffffffffffffff82811660048301527fffffffffffffffffffffffffffffffffffffffffffffffffffffffffffffffff602483015283169063095ea7b3906044016020604051808303816000875af11580156102a2573d6000803e3d6000fd5b505050506040513d601f19601f820116820180604052508101906102c69190611a1b565b505050565b60025460ff161561033d576040517f08c379a000000000000000000000000000000000000000000000000000000000815260206004820152600d60248201527f6e6f207265656e7472616e63790000000000000000000000000000000000000060448201526064015b60405180910390fd5b600280547fffffffffffffffffffffffffffffffffffffffffffffffffffffffffffffff00166001908117909155336000908152602091909152604090205460ff1661038857600080fd5b73ffffffffffffffffffffffffffffffffffffffff871663d505accf6103b16020880188611969565b6103c16040890160208a01611969565b604089013560608a01356103db60a08c0160808d01611a3d565b6040517fffffffff0000000000000000000000000000000000000000000000000000000060e088901b16815273ffffffffffffffffffffffffffffffffffffffff95861660048201529490931660248501526044840191909152606483015260ff16608482015260a088013560a482015260c088013560c482015260e401600060405180830381600087803b15801561047357600080fd5b505af1158015610487573d6000803e3d6000fd5b50506040517f23b872dd00000000000000000000000000000000000000000000000000000000815273ffffffffffffffffffffffffffffffffffffffff8b81166004830152306024830152604482018a90528a1692506323b872dd91506064016020604051808303816000875af1158015610506573d6000803e3d6000fd5b505050506040513d601f19601f8201168201806040525081019061052a9190611a1b565b506040517f095ea7b300000000000000000000000000000000000000000000000000000000815273ffffffffffffffffffffffffffffffffffffffff85811660048301527fffffffffffffffffffffffffffffffffffffffffffffffffffffffffffffffff602483015288169063095ea7b3906044016020604051808303816000875af11580156105bf573d6000803e3d6000fd5b505050506040513d601f19601f820116820180604052508101906105e39190611a1b565b506000808473ffffffffffffffffffffffffffffffffffffffff1634858560405161060f929190611a60565b60006040518083038185875af1925050503d806000811461064c576040519150601f19603f3d011682016040523d82523d6000602084013e610651565b606091505b50915091508161069d61066383611591565b60408051808201909152601281527f535741505f43414c4c5f4641494c45443a2000000000000000000000000000006020820152906115f6565b906106d5576040517f08c379a00000000000000000000000000000000000000000000000000000000081526004016103349190611a94565b506040517f70a082310000000000000000000000000000000000000000000000000000000081523060048201526000907f000000000000000000000000000000000000000000000000000000000000000073ffffffffffffffffffffffffffffffffffffffff16906370a0823190602401602060405180830381865afa158015610763573d6000803e3d6000fd5b505050506040513d601f19601f820116820180604052508101906107879190611ae5565b905080156108fc576040517f2e1a7d4d000000000000000000000000000000000000000000000000000000008152600481018290527f000000000000000000000000000000000000000000000000000000000000000073ffffffffffffffffffffffffffffffffffffffff1690632e1a7d4d90602401600060405180830381600087803b15801561081757600080fd5b505af115801561082b573d6000803e3d6000fd5b505060405173ffffffffffffffffffffffffffffffffffffffff8e169250479150600081818185875af1925050503d8060008114610885576040519150601f19603f3d011682016040523d82523d6000602084013e61088a565b606091505b505080935050826108f7576040517f08c379a000000000000000000000000000000000000000000000000000000000815260206004820152600f60248201527f73656e6420455448206661696c656400000000000000000000000000000000006044820152606401610334565b61095e565b6040517f08c379a000000000000000000000000000000000000000000000000000000000815260206004820152601060248201527f6e6f2057455448207265636569766564000000000000000000000000000000006044820152606401610334565b6040517f70a0823100000000000000000000000000000000000000000000000000000000815230600482015273ffffffffffffffffffffffffffffffffffffffff8b169063a9059cbb908d9083906370a0823190602401602060405180830381865afa1580156109d2573d6000803e3d6000fd5b505050506040513d601f19601f820116820180604052508101906109f69190611ae5565b6040517fffffffff0000000000000000000000000000000000000000000000000000000060e085901b16815273ffffffffffffffffffffffffffffffffffffffff909216600483015260248201526044016020604051808303816000875af1158015610a66573d6000803e3d6000fd5b505050506040513d601f19601f82011682018060405250810190610a8a9190611a1b565b5050600280547fffffffffffffffffffffffffffffffffffffffffffffffffffffffffffffff0016905550505050505050505050565b610ac8611510565b60405133904780156108fc02916000818181858888f19350505050158015610af4573d6000803e3d6000fd5b50565b60025460ff1615610b64576040517f08c379a000000000000000000000000000000000000000000000000000000000815260206004820152600d60248201527f6e6f207265656e7472616e6379000000000000000000000000000000000000006044820152606401610334565b600280547fffffffffffffffffffffffffffffffffffffffffffffffffffffffffffffff0016600117905573ffffffffffffffffffffffffffffffffffffffff831663d505accf610bb86020840184611969565b610bc86040850160208601611969565b60408501356060860135610be260a0880160808901611a3d565b6040517fffffffff0000000000000000000000000000000000000000000000000000000060e088901b16815273ffffffffffffffffffffffffffffffffffffffff95861660048201529490931660248501526044840191909152606483015260ff16608482015260a084013560a482015260c084013560c482015260e401600060405180830381600087803b158015610c7a57600080fd5b505af1158015610c8e573d6000803e3d6000fd5b50506040517f23b872dd00000000000000000000000000000000000000000000000000000000815273ffffffffffffffffffffffffffffffffffffffff878116600483015230602483015260448201869052861692506323b872dd91506064016020604051808303816000875af1158015610d0d573d6000803e3d6000fd5b505050506040513d601f19601f82011682018060405250810190610d319190611a1b565b5050600280547fffffffffffffffffffffffffffffffffffffffffffffffffffffffffffffff00169055505050565b610d68611510565b610d726000611622565b565b60025460ff1615610de1576040517f08c379a000000000000000000000000000000000000000000000000000000000815260206004820152600d60248201527f6e6f207265656e7472616e6379000000000000000000000000000000000000006044820152606401610334565b600280547fffffffffffffffffffffffffffffffffffffffffffffffffffffffffffffff00166001179055610e14611510565b610e1f838383611697565b5050600280547fffffffffffffffffffffffffffffffffffffffffffffffffffffffffffffff001690555050565b610e55611510565b73ffffffffffffffffffffffffffffffffffffffff16600090815260016020819052604090912080547fffffffffffffffffffffffffffffffffffffffffffffffffffffffffffffff00169091179055565b60025460ff1615610f14576040517f08c379a000000000000000000000000000000000000000000000000000000000815260206004820152600d60248201527f6e6f207265656e7472616e6379000000000000000000000000000000000000006044820152606401610334565b600280547fffffffffffffffffffffffffffffffffffffffffffffffffffffffffffffff00166001908117909155336000908152602091909152604090205460ff16610f5f57600080fd5b6040517f095ea7b300000000000000000000000000000000000000000000000000000000815273ffffffffffffffffffffffffffffffffffffffff85811660048301527fffffffffffffffffffffffffffffffffffffffffffffffffffffffffffffffff602483015286169063095ea7b3906044016020604051808303816000875af1158015610ff3573d6000803e3d6000fd5b505050506040513d601f19601f820116820180604052508101906110179190611a1b565b506000808473ffffffffffffffffffffffffffffffffffffffff16348585604051611043929190611a60565b60006040518083038185875af1925050503d8060008114611080576040519150601f19603f3d011682016040523d82523d6000602084013e611085565b606091505b50915091508161109761066383611591565b906110cf576040517f08c379a00000000000000000000000000000000000000000000000000000000081526004016103349190611a94565b506040517f70a082310000000000000000000000000000000000000000000000000000000081523060048201526000907f000000000000000000000000000000000000000000000000000000000000000073ffffffffffffffffffffffffffffffffffffffff16906370a0823190602401602060405180830381865afa15801561115d573d6000803e3d6000fd5b505050506040513d601f19601f820116820180604052508101906111819190611ae5565b905080156108fc576040517f2e1a7d4d000000000000000000000000000000000000000000000000000000008152600481018290527f000000000000000000000000000000000000000000000000000000000000000073ffffffffffffffffffffffffffffffffffffffff1690632e1a7d4d90602401600060405180830381600087803b15801561121157600080fd5b505af1158015611225573d6000803e3d6000fd5b505060405173ffffffffffffffffffffffffffffffffffffffff8c169250479150600081818185875af1925050503d806000811461127f576040519150601f19603f3d011682016040523d82523d6000602084013e611284565b606091505b505080935050826112f1576040517f08c379a000000000000000000000000000000000000000000000000000000000815260206004820152600f60248201527f73656e6420455448206661696c656400000000000000000000000000000000006044820152606401610334565b5050600280547fffffffffffffffffffffffffffffffffffffffffffffffffffffffffffffff0016905550505050505050565b61132c611510565b6040517f70a0823100000000000000000000000000000000000000000000000000000000815230600482015273ffffffffffffffffffffffffffffffffffffffff82169063a9059cbb90339083906370a0823190602401602060405180830381865afa1580156113a0573d6000803e3d6000fd5b505050506040513d601f19601f820116820180604052508101906113c49190611ae5565b6040517fffffffff0000000000000000000000000000000000000000000000000000000060e085901b16815273ffffffffffffffffffffffffffffffffffffffff909216600483015260248201526044016020604051808303816000875af1158015611434573d6000803e3d6000fd5b505050506040513d601f19601f820116820180604052508101906114589190611a1b565b5050565b611464611510565b73ffffffffffffffffffffffffffffffffffffffff8116611507576040517f08c379a000000000000000000000000000000000000000000000000000000000815260206004820152602660248201527f4f776e61626c653a206e6577206f776e657220697320746865207a65726f206160448201527f64647265737300000000000000000000000000000000000000000000000000006064820152608401610334565b610af481611622565b60005473ffffffffffffffffffffffffffffffffffffffff163314610d72576040517f08c379a000000000000000000000000000000000000000000000000000000000815260206004820181905260248201527f4f776e61626c653a2063616c6c6572206973206e6f7420746865206f776e65726044820152606401610334565b60606044825110156115d657505060408051808201909152601d81527f5472616e73616374696f6e2072657665727465642073696c656e746c79000000602082015290565b600482019150818060200190518101906115f09190611b2d565b92915050565b6060828260405160200161160b929190611bf8565b604051602081830303815290604052905092915050565b6000805473ffffffffffffffffffffffffffffffffffffffff8381167fffffffffffffffffffffffff0000000000000000000000000000000000000000831681178455604051919092169283917f8be0079c531659141344cd1fd0a4f28419497f9722a3daafe3b4186f6b6457e09190a35050565b606060008473ffffffffffffffffffffffffffffffffffffffff163485856040516116c3929190611a60565b60006040518083038185875af1925050503d8060008114611700576040519150601f19603f3d011682016040523d82523d6000602084013e611705565b606091505b50925090508061171761066384611591565b9061174f576040517f08c379a00000000000000000000000000000000000000000000000000000000081526004016103349190611a94565b50509392505050565b73ffffffffffffffffffffffffffffffffffffffff81168114610af457600080fd5b6000806040838503121561178d57600080fd5b823561179881611758565b915060208301356117a881611758565b809150509250929050565b600060e082840312156117c557600080fd5b50919050565b60008083601f8401126117dd57600080fd5b50813567ffffffffffffffff8111156117f557600080fd5b60208301915083602082850101111561180d57600080fd5b9250929050565b6000806000806000806000806101a0898b03121561183157600080fd5b883561183c81611758565b9750602089013561184c81611758565b9650604089013595506118628a60608b016117b3565b945061014089013561187381611758565b935061016089013561188481611758565b925061018089013567ffffffffffffffff8111156118a157600080fd5b6118ad8b828c016117cb565b999c989b5096995094979396929594505050565b60008060008061014085870312156118d857600080fd5b84356118e381611758565b935060208501356118f381611758565b92506040850135915061190986606087016117b3565b905092959194509250565b60008060006040848603121561192957600080fd5b833561193481611758565b9250602084013567ffffffffffffffff81111561195057600080fd5b61195c868287016117cb565b9497909650939450505050565b60006020828403121561197b57600080fd5b813561198681611758565b9392505050565b60008060008060008060a087890312156119a657600080fd5b86356119b181611758565b955060208701356119c181611758565b945060408701356119d181611758565b935060608701356119e181611758565b9250608087013567ffffffffffffffff8111156119fd57600080fd5b611a0989828a016117cb565b979a9699509497509295939492505050565b600060208284031215611a2d57600080fd5b8151801515811461198657600080fd5b600060208284031215611a4f57600080fd5b813560ff8116811461198657600080fd5b8183823760009101908152919050565b60005b83811015611a8b578181015183820152602001611a73565b50506000910152565b6020815260008251806020840152611ab3816040850160208701611a70565b601f017fffffffffffffffffffffffffffffffffffffffffffffffffffffffffffffffe0169190910160400192915050565b600060208284031215611af757600080fd5b5051919050565b7f4e487b7100000000000000000000000000000000000000000000000000000000600052604160045260246000fd5b600060208284031215611b3f57600080fd5b815167ffffffffffffffff80821115611b5757600080fd5b818401915084601f830112611b6b57600080fd5b815181811115611b7d57611b7d611afe565b604051601f82017fffffffffffffffffffffffffffffffffffffffffffffffffffffffffffffffe0908116603f01168101908382118183101715611bc357611bc3611afe565b81604052828152876020848701011115611bdc57600080fd5b611bed836020830160208801611a70565b979650505050505050565b60008351611c0a818460208801611a70565b835190830190611c1e818360208801611a70565b0194935050505056fea2646970667358221220052d424041e6179a9cf8bcfd6ada43de08b437cba192f478cff7c0d33e31793864736f6c63430008120033",
  "linkReferences": {},
  "deployedLinkReferences": {}
}